:100000000C9434000C9451000C9451000C94510049
:100010000C9451000C9451000C9451000C9451001C
:100020000C9451000C9451000C9451000C9451000C
:100030000C9451000C946C000C9451000C945100E1
:100040000C9451000C9451000C944E010C947C01C2
:100050000C9451000C9451000C9451000C945100DC
:100060000C9451000C94510011241FBECFEFD8E026
:10007000DEBFCDBF11E0A0E0B1E0E4E3F4E002C0F8
:1000800005900D92A432B107D9F721E0A4E2B1E0C6
:1000900001C01D92A936B207E1F70E9453000C94EB
:1000A00018020C9400000E94000187E690E00E9474
:1000B000A601E1E8F0E080818C7F8083808184600C
:1000C0008083EFE6F0E0808181608083789481E036
:1000D00091E00E94D601FFCF1F920F920FB60F92B0
:1000E00011241F932F933F934F935F936F937F93AD
:1000F0008F939F93AF93BF93EF93FF93CF93DF9330
:1001000000D0CDB7DEB780E390E39A8389838091F6
:100110000001823041F08330F1F1813009F057C0A5
:100120008093000157C08EE00E940F0180E00E9482
:100130002C010E944A018EE00E940F010E943601AC
:100140004AE0BE016F5F7F4F90E00E94E301CE0165
:1001500001960E94D6010E944001182F4AE0BE017C
:100160006F5F7F4F90E00E94E3018FE191E00E947A
:10017000D601CE0101960E94D60181E291E00E9453
:10018000D601111104C083E08093000123C081E0F7
:10019000809300011FC040E1BE016F5F7F4F87E089
:1001A00090E00E94E301CE0101960E94D60181E217
:1001B00091E00E94D601CE0101960E94D60181E213
:1001C00091E00E94D60181E08093000103C081E0AC
:1001D000809300010F900F90DF91CF91FF91EF91ED
:1001E000BF91AF919F918F917F916F915F914F914F
:1001F0003F912F911F910F900FBE0F901F90189558
:1002000087B18F7C87B988B1806388B9E9EBF0E06A
:1002100080818C7F808388E98093B800089594EA78
:100220009093BC009091BC009923E4F78093BB00AD
:1002300084E88093BC008091BC008823E4F780911F
:10024000B900887F883121F0803421F480E008955E
:1002500080E0089581E008958093BB0084E8809356
:10026000BC008091BC008823E4F7089584EC80935F
:10027000BC008091BC008823E4F78091BB00089506
:1002800084E88093BC008091BC008823E4F78091CF
:10029000BB00089584E98093BC0008951F920F92DB
:1002A0000FB60F9211242F938F939F93EF93FF9389
:1002B0008091C0002091C6008C71E0912601EF5F13
:1002C000EF7190912501E91739F0E0932601F0E0F4
:1002D000E75DFE4F208301C082E090912401892BCD
:1002E00080932401FF91EF919F918F912F910F9017
:1002F0000FBE0F901F9018951F920F920FB60F927E
:1003000011248F939F93EF93FF93909128018091F5
:100310002701981769F0E0912701EF5FEF71E093F3
:100320002701F0E0E75BFE4F80818093C60005C0A7
:10033000E1ECF0E080818F7D8083FF91EF919F91D0
:100340008F910F900FBE0F901F901895109228015B
:10035000109227011092260110922501282F392F83
:1003600033231CF422E02093C00090789093C500C2
:100370008093C40088E98093C10086E08093C20026
:100380000895209128012F5F2F719091270129173F
:10039000E1F3E22FF0E0E75BFE4F8083209328013A
:1003A000E1ECF0E08081806280830895CF93DF9359
:1003B000EC0103C021960E94C10188818111FACF0E
:1003C000DF91CF910895BB274A3031F4992322F46D
:1003D000BDE2909581959F4F0C94EF01BB27FB01E7
:1003E0005527AA27880F991FAA1FA41710F0A41B2E
:1003F00083955051B9F7A05DAA3308F0A95DA19388
:10040000009779F7B111B1931192CB010C940802C6
:10041000DC01FC01672F71917723E1F7329704C06B
:100420007C916D9370836291AE17BF07C8F30895F6
:04043000F894FFCF6E
:10043400010D0A5363616E204932432D62757320A6
:10044400666F7220646576696365733A0D0A002EDF
:040454000020000084
:00000001FF
