:100000000C9434000C9446000C9446000C9446006A
:100010000C9446000C9446000C9446000C94460048
:100020000C9446000C944C010C9446000C94460031
:100030000C9446000C9446000C9446000C94460028
:100040000C9446000C9446000C9446000C94460018
:100050000C9446000C9446000C9446000C94460008
:100060000C9446000C94460011241FBECFEFD8E03C
:10007000DEBFCDBF21E0A0E0B1E001C01D92A33002
:10008000B207E1F70E943D010C9411020C940000AC
:1000900085B1826085B985E08A95F1F7000085B168
:1000A0008D7F85B90895CF93C82F662321F085B140
:1000B000816085B903C085B18E7F85B98AB18061C1
:1000C0008AB98AB180628AB98AB180648AB98AB1F0
:1000D00080688AB98BB18F778BB98BB18F7B8BB9E5
:1000E0008BB18F7D8BB98BB18F7E8BB9CC231CF4F8
:1000F0008BB180688BB9C6FF03C08BB180648BB9AC
:10010000C5FF03C08BB180628BB9C4FF03C08BB144
:1001100080618BB90E9448008BB18F778BB98BB10E
:100120008F7B8BB98BB18F7D8BB98BB18F7E8BB968
:10013000C3FF03C08BB180688BB9C2FF03C08BB112
:1001400080648BB9C1FF03C08BB180628BB9C0FFE3
:1001500003C08BB180618BB90E9448008BB1806174
:100160008BB98BB180628BB98BB180648BB98BB149
:1001700080688BB98FE79CE00197F1F700C0000021
:10018000CF91089560E00E9453000895611104C06A
:1001900080580E94C200089580540E94C2000895B1
:1001A00081E00E94C200089561E00E94530008951A
:1001B000CF93DF93FC0103C00E94D400FE01EF0146
:1001C000219680818111F8CFDF91CF910895CF934F
:1001D000C82F84B1816084B98AB180628AB984B140
:1001E000826084B98AB180618AB98AB180628AB931
:1001F0008AB180648AB98AB180688AB98FEF99EF31
:100200000197F1F700C000008BB180628BB98BB110
:1002100080618BB90E9448008FE19EE40197F1F75D
:1002200000C000000E9448008FEF90E00197F1F7B6
:1002300000C000000E9448008FEF90E00197F1F7A6
:1002400000C000008BB18F7E8BB90E9448008FEFF9
:1002500090E00197F1F700C0000088E20E94C20020
:1002600088E00E94C2000E94D00086E00E94C20086
:100270008C2F0E94C200CF9108958CE00E94E7006D
:10028000E1EBF0E0808187608083E0E7F0E080814F
:10029000816080837894FFCF1F920F920FB60F92E8
:1002A00011240F931F932F933F934F935F936F935B
:1002B0007F938F939F93AF93BF93EF93FF93CF93CE
:1002C000DF93CDB7DEB72797DEBFCDBF80910201A8
:1002D0008F5F80930201863008F448C010920201BB
:1002E000809101018F5F809301018A3058F08091E5
:1002F00000018F5F80930001109201018C3310F098
:1003000010920001809100014AE08E010F5F1F4FA3
:10031000B80190E00E94DC01F80101900020E9F7AB
:1003200031978EE290E091838083809101014AE0D1
:10033000BE016A5F7F4F90E00E94DC01BE016A5FF0
:100340007F4FC8010E94D10160E081E00E94C60099
:10035000C8010E94D800809100018A3038F460E022
:1003600084E00E94C60080E20E94D40027960FB667
:10037000F894DEBF0FBECDBFDF91CF91FF91EF911B
:10038000BF91AF919F918F917F916F915F914F91AD
:100390003F912F911F910F910F900FBE0F901F90C3
:1003A0001895FB01DC010D900020E9F711970190F1
:1003B0000D920020E1F70895BB274A3031F49923CC
:1003C00022F4BDE2909581959F4F0C94E801BB27E4
:1003D000FB015527AA27880F991FAA1FA41710F001
:1003E000A41B83955051B9F7A05DAA3308F0A95D0D
:1003F000A193009779F7B111B1931192CB010C94AD
:100400000102DC01FC01672F71917723E1F732973C
:1004100004C07C916D9370836291AE17BF07C8F3DF
:060420000895F894FFCFDF
:00000001FF
