:100000000C9434000C9451000C9451000C94510049
:100010000C9451000C9451000C9451000C9451001C
:100020000C9451000C9451000C9451000C9451000C
:100030000C9451000C9474010C9451000C945100D8
:100040000C9451000C9451000C941D020C944B0222
:100050000C9451000C9489010C9451000C945100A3
:100060000C9451000C94510011241FBECFEFD8E026
:10007000DEBFCDBF11E0A0E0B1E0E2EDF5E002C0EF
:1000800005900D92A832B107D9F721E0A8E2B1E0BE
:1000900001C01D92AD36B207E1F70E9448010C94F1
:1000A000E7020C94000085B1826085B985E08A95ED
:1000B000F1F7000085B18D7F85B90895CF93C82FE2
:1000C000662321F085B1816085B903C085B18E7F3B
:1000D00085B98AB180618AB98AB180628AB98AB1E8
:1000E00080648AB98AB180688AB98BB18F778BB9FD
:1000F0008BB18F7B8BB98BB18F7D8BB98BB18F7EA1
:100100008BB9CC231CF48BB180688BB9C6FF03C0BC
:100110008BB180648BB9C5FF03C08BB180628BB992
:10012000C4FF03C08BB180618BB90E9453008BB1B7
:100130008F778BB98BB18F7B8BB98BB18F7D8BB95F
:100140008BB18F7E8BB9C3FF03C08BB180688BB935
:10015000C2FF03C08BB180648BB9C1FF03C08BB1F8
:1001600080628BB9C0FF03C08BB180618BB90E94E4
:1001700053008BB180618BB98BB180628BB98BB12D
:1001800080648BB98BB180688BB98FE79CE0019755
:10019000F1F700C00000CF91089560E00E945E007A
:1001A0000895611104C080580E94CD0008958054C4
:1001B0000E94CD00089581E00E94CD00089561E085
:1001C0000E945E000895CF93DF93FC0103C00E945C
:1001D000DF00FE01EF01219680818111F8CFDF91D0
:1001E000CF910895CF93C82F84B1816084B98AB12B
:1001F00080628AB984B1826084B98AB180618AB927
:100200008AB180628AB98AB180648AB98AB1806809
:100210008AB98FEF99EF0197F1F700C000008BB119
:1002200080628BB98BB180618BB90E9453008FE1E2
:100230009EE40197F1F700C000000E9453008FEF89
:1002400090E00197F1F700C000000E9453008FEF8B
:1002500090E00197F1F700C000008BB18F7E8BB961
:100260000E9453008FEF90E00197F1F700C000006B
:1002700088E20E94CD0088E00E94CD000E94DB0051
:1002800086E00E94CD008C2F0E94CD00CF91089572
:100290008CE00E94F200ECE7F0E0808180648083D3
:1002A00080818F7780838081807F8083EAE7F0E0A0
:1002B000808180688083808188608083808187607E
:1002C0008083E1E8F0E080818B7F808380818360A0
:1002D0008083EFE6F0E080818160808387E690E0B4
:1002E0000E9475027894FFCF1F920F920FB60F9263
:1002F00011248F93EF93FF93EAE7F0E0808180640D
:100300008083FF91EF918F910F900FBE0F901F9000
:1003100018951F920F920FB60F9211240F931F93EF
:100320002F933F934F935F936F937F938F939F93FD
:10033000AF93BF93EF93FF93CF93DF9300D000D0A1
:10034000CDB7DEB780E390E39A8389839C838B8368
:1003500000917800109179004AE0BE016F5F7F4FF5
:10036000C8010E94B20260E080E00E94D10083E0F8
:1003700091E00E94E30060E080E00E94D100CE01A5
:1003800001960E94E300CE0101960E94A50285E03D
:1003900091E00E94A50261E080E00E94D10080E02F
:1003A00091E00E94E30061E080E00E94D1000A3801
:1003B00082E0180729F488E091E00E94E30024C05D
:1003C000023981E0180729F48FE091E00E94E300F0
:1003D0001BC0053F110529F484E191E00E94E30070
:1003E00013C00536110529F489E191E00E94E3006C
:1003F0000BC0012B29F48CE191E00E94E30004C0C2
:1004000082E291E00E94E3000F900F900F900F9016
:10041000DF91CF91FF91EF91BF91AF919F918F911C
:100420007F916F915F914F913F912F911F910F910C
:100430000F900FBE0F901F9018951F920F920FB63E
:100440000F9211242F938F939F93EF93FF9380919B
:10045000C0002091C6008C71E0912A01EF5FEF711E
:1004600090912901E91739F0E0932A01F0E0E35D6A
:10047000FE4F208301C082E090912801892B809358
:100480002801FF91EF919F918F912F910F900FBEB7
:100490000F901F9018951F920F920FB60F92112474
:1004A0008F939F93EF93FF9390912C0180912B0159
:1004B000981769F0E0912B01EF5FEF71E0932B014A
:1004C000F0E0E35BFE4F80818093C60005C0E1EC65
:1004D000F0E080818F7D8083FF91EF919F918F91DC
:1004E0000F900FBE0F901F90189510922C01109234
:1004F0002B0110922A0110922901282F392F332322
:100500001CF422E02093C00090789093C500809363
:10051000C40088E98093C10086E08093C2000895FA
:1005200020912C012F5F2F7190912B012917E1F35E
:10053000E22FF0E0E35BFE4F808320932C01E1EC9F
:10054000F0E08081806280830895CF93DF93EC0197
:1005500003C021960E94900288818111FACFDF9119
:10056000CF910895BB274A3031F4992322F4BDE29C
:10057000909581959F4F0C94BE02BB27FB01552798
:10058000AA27880F991FAA1FA41710F0A41B8395F0
:100590005051B9F7A05DAA3308F0A95DA193009767
:1005A00079F7B111B1931192CB010C94D702DC0110
:1005B000FC01672F71917723E1F7329704C07C919A
:1005C0006D9370836291AE17BF07C8F30895F894D6
:0205D000FFCF5B
:1005D200202020202020200073656C656374006C4D
:1005E20065667400646F776E007570007269676883
:0805F20074006E6F6E650000DD
:00000001FF
